:1000000005308A00642D000025183232BA123019EA
:10001000641D25183232202A4F100000D424CD222E
:100020002D0025183232BA123019641D25183232CB
:10003000202A4F1000012D104829DF274E00AD2641
:100040004927DF274E00AD29C521DF274E002D248B
:10005000D22F4F234600AD2649274F234600AD2916
:10006000C5214F23460020102010201020003230E0
:1000700084008313000803194A284030F800F70170
:10008000F70B4028F80B3F28D930F700F70B46282C
:10009000800B3D28080039184F28861150288615F6
:1000A000831686118312B918572806125828061687
:1000B00083160612831239195F2886126028861665
:1000C000831686128312B919672806136828061743
:1000D00083160613000083120615831606112030BE
:1000E000F700F70B7128742800008312061183169D
:1000F000061183120800BA01831686150030831298
:1001000086190130BA048316061600308312061AC7
:100110000130F7000310F70D7708BA04831686162E
:1001200000308312861A0130F700F70DF70DFC300E
:10013000F7057708BA048316061700308312061BEA
:100140000130F700F70DF70DF70DF830F7057708D8
:10015000BA043A08F8000800831606110610861043
:1001600083120610831606108615061686160617C5
:1001700083128614831686100000831206158316D8
:100180000611000083127B207808B900061183163F
:100190000611000083120615831606111030F700B1
:1001A000F70BD028000083127B207808B8000611D6
:1001B0008316061186110612861206138312390E53
:1001C000F700F030F70577083804F8007808B80031
:1001D000B81FEC288316B428B608031DF1280610B2
:1001E000F228061483160610000083128610831668
:1001F0008610000083120611831606118312370E33
:10020000B8000F30B8053808B9004B2037080F394F
:10021000B800B9004B2008002830AC000C30AD000D
:100220000130AE000630AF000611831606118312AE
:100230000610831606108312861083168610861108
:100240000612861206130611061086100F3083124E
:10025000B20037200130AB002B08033C031C3829C7
:100260000330B9004B200530B2003720AB0A2C29EF
:100270000230B9004B200530B2003720AB012B080B
:10028000033C031C4F292C302B07840083130008E8
:10029000B000B6013008B700AC20AB0A3F29080017
:1002A000B2013208073C031C67290310B10C031884
:1002B0005B2988135C298817831688130813831217
:1002C00008178316081383120813B20A512908006D
:1002D00083168812831288162C08B10050212D082D
:1002E000B1005021831688128312881208008316E9
:1002F0008812831288162E08B100502183168817A1
:100300001030F700F70B822900008312AF012F088D
:10031000073C031CAA29831688178312881B92297D
:10032000031093290314B00C8316081383120817C3
:100330002030F700F70B9A299D2900008316081337
:10034000831208132030F700F70BA429A729000017
:10035000AF0A872983168812831288123008F800A2
:10036000080083168812831288122030F700F70BDA
:10037000B729BA29000083160813831208138E3098
:10038000AC00AD0168219030AC00A430AD00682114
:100390008130AE0077217808AB002B088039031933
:1003A000D5298030AC00AD0168218A110A12732D65
:1003B000330BDB29DE294030B400DF29B4010130E2
:1003C0003202B40734088038B500B6013508B700EA
:1003D000AC2008003108073A0319F8290B3A031931
:1003E000FD29063A0319052A023A03190B2A102A95
:1003F0000130B200B300D821152AB6010130B70090
:10040000AC200230B2003720152A0130B200023091
:10041000B300D821152AB6011030B700AC20152A38
:100420000130B6003108B700AC2008000B08AB0063
:100430008B13831603178C170C1400000000831213
:100440000313AB1B8B1703170C087F3903196A2A98
:100450000313AB0003170D080313AC0003170F08B9
:100460000313AD002B08B100EA212C0803178D00FF
:1004700003132D0803178F0003130B08AE008B1313
:10048000831603178C170C1400000000831203134B
:10049000AE1B8B1703170C0D0E0D7F3903196A2A3B
:1004A0000313AB0003170D080313AC0003170F0869
:1004B0000313AD002B08B100EA212C0803178D00AF
:1004C00003132D0803178F008D0A03198F0A0313D6
:1004D000162A0317031308002F08B000300EF70088
:1004E0000F30F7057708B2003208B3000A30B400C5
:1004F000F701F801330803103418F707F70CF80C6C
:10050000B418F707F70CF80C3419F707F70CF80CC8
:10051000B419F707F70CF80C341AF707F70CF80CB6
:10052000B41AF707F70CF80C341BF707F70CF80CA4
:10053000B41BF707F70CF80C7808AF0030080F3938
:10054000AF072F08F80008003208F801310203183D
:10055000AC2A3108F700B82AF7010830B300B10D12
:10056000F70D320877020318F700F80DB30BAF2A26
:10057000080020302C1E3030AD002B08F700AB1FD8
:10058000C92AF709F70A7708AB002D30AD00AC1780
:100590002C142B08B1006430B200A4227708AB0001
:1005A00030307807AE002B08B1000A30B200A42228
:1005B00030307707B00030307807AF002D08F700F3
:1005C00030302E020319E82AAC14AC1B2C15FC2A7F
:1005D0002C19FC2A2D08AE00AC18F32A30302F025B
:1005E0000319F62A2C14AC1BAC14FC2A031D2C1482
:1005F000031DFC2A2E08AF002C19032BAC18062B68
:100600002C18092B0C2B2D08B100EA212E08B10063
:10061000EA212F08B100EA213008B100EA210800E0
:100620000B08AC008B13831603178C170C140000F7
:10063000000083120313AC1B8B170318472B0317FF
:100640000C087F390313AC0003170D080313AD002A
:1006500003170F080313AE002C08B100EA212D0880
:1006600003178D0003132E0803178F0003130B08C5
:10067000AF008B13831603178C170C1400000000B7
:1006800083120313AF1B8B17AB0B472B662B031780
:100690000C0D0E0D7F390313AC0003170D08031367
:1006A000AD0003170F080313AE002C08B100EA21B8
:1006B0002D0803178D0003132E0803178F008D0AD2
:1006C00003198F0A03100313AB0B102B08000C2126
:1006D0000130B200B300D8210E3003178D00003076
:1006E0008F00031316228530AE0077217808AB0007
:1006F000AF006C227808A0008330AE007721780824
:10070000AB00AF006C227808A1008130AE007721E9
:100710007808AB00AF006C227808A2002008A30084
:1007200001302107A400A5012008A60001302107FF
:10073000A7000A30A8000130B2000230B300D8216F
:100740002308AB000130AC00B9223A30B100EA21F5
:100750002408AB000130AC00B9223A30B100EA21E4
:100760002508AB000130AC00B922183003178D000A
:1007700000308F00031004300313AB0010230D3042
:10078000B2000230B300D8212608AB000130AC0023
:10079000B9223A30B100EA212708AB000130AC00A1
:1007A000B9223A30B100EA212808AB000130AC0090
:1007B000B9228A110A12762D290B002C83160814EF
:1007C00083120818EE2BA30A2308183C0319A3016F
:1007D000831608148312081CE82BFF2B8316881439
:1007E00083128818FF2BA3032308FF3C031DFA2B59
:1007F0001730A300831688148312881CFA2BBD2C93
:100800002908023C031D262C83160814831208189D
:10081000142CA40A24083C3C0319A40183160814D0
:100820008312081C0E2C252C83168814831288181A
:10083000252CA4032408FF3C031D202C3B30A400DE
:10084000831688148312881C202CBD2C2908033C95
:10085000031D4C2C83160814831208183A2CA50A81
:1008600025083C3C0319A501831608148312081CB3
:10087000342C4B2C83168814831288184B2CA50318
:100880002508FF3C031D462C3B30A5008316881429
:100890008312881C462CBD2C2908043C031D722C95
:1008A0008316081483120818602CA60A2608183C20
:1008B0000319A601831608148312081C5A2C712CE4
:1008C0008316881483128818712CA6032608FF3C0F
:1008D000031D6C2C1730A600831688148312881C05
:1008E0006C2CBD2C2908053C031D982C831608147C
:1008F00083120818862CA70A27083C3C0319A70175
:10090000831608148312081C802C972C83168814D5
:1009100083128818972CA7032708FF3C031D922CED
:100920003B30A700831688148312881C922CBD2CA0
:100930002908063C031DBD2C8316081483120818D1
:10094000AC2CA80A28083C3C0319A80183160814FB
:100950008312081CA62CBD2C8316881483128818B9
:10096000BD2CA8032808FF3C031DB82C3B30A80071
:10097000831688148312881CB82C8A110A12772DCA
:100980002A0BD12C0E30B2000130B300D8211B301D
:1009900003178D0000308F00031316220130A900C9
:1009A0003D2D2A08023C031DE42C0E30B20001301C
:1009B000B300D8211F3003178D0000308F000313C0
:1009C00016220230A9003D2D2A08033C031DF72CF6
:1009D0000E30B2000130B300D821233003178D0050
:1009E00000308F00031316220330A9003D2D2A0882
:1009F000043C031D0A2D0E30B2000130B300D82193
:100A0000273003178D0000308F00031316220430A7
:100A1000A9003D2D2A08053C031D1D2D0E30B200F6
:100A20000130B300D8212B3003178D0000308F0028
:100A3000031316220530A9003D2D2A08063C031D8C
:100A4000302D0E30B2000130B300D8212F30031703
:100A50008D0000308F00031316220630A9003D2DB3
:100A60000E30B2000130B300D821333003178D00AF
:100A700000308F0003131622A9018A110A12892D52
:100A800023082B02031D512D24082C02031D512D78
:100A900025082D02031D512D861783168613602D00
:100AA000831226082B02031D612D27082C02031D2B
:100AB000612D28082D02031D612D861383168613D0
:100AC00083128A110A12032E03081F398300AA0118
:100AD00083161F149F141F159F1107309C0083134A
:100AE00083120C21B129AA080319672BDC2B83166A
:100AF000081583120819882DAA0A2A08083C031D24
:100B0000832D0130AA00831608158312081D832D3A
:100B1000C02C0630B2000130B300D8218530AE00C1
:100B200077217808AB00AF006C227808A0008330F2
:100B3000AE0077217808AB00AF006C227808A100E6
:100B40008130AE0077217808AB00AF006C227808C6
:100B5000A2002008AB000130AC00B9223A30B1004D
:100B6000EA212108AB000130AC00B9223A30B100D3
:100B7000EA212208AB000130AC00B9220130B200FA
:100B80000230B300D8212308AB000130AC00B922F9
:100B90003A30B100EA212408AB000130AC00B922A0
:100BA0003A30B100EA212508AB000130AC00B9228F
:100BB0000B3003178D0000308F0003100430031337
:100BC000AB0010230D30B2000230B300D82126084C
:100BD000AB000130AC00B9223A30B100EA2127085D
:100BE000AB000130AC00B9223A30B100EA2128084C
:100BF000AB000130AC00B9222008AB002108AC00EA
:0A0C00002208AD00402D762D6300A0
:02400E00723FFF
:00000001FF
;PIC16F877A
;CRC=B130  CREATED="22-Dec-22 23:44"
